:020000040000FA
:06000000F2EF1EF01200F9
:0600080004EF08F01200F5
:060018000CEF08F01200DD
:06100000F2EF1EF01200E9
:021006001200D6
:0610080016EF08F01200D3
:02100E00BD6AB9
:021010001200CC
:061018001DEF08F01200BC
:02101E000100CF
:0C102000003E0000600000009500000091
:04102C00DACFE4FF34
:10103000E652E552E5CFDAFF1100D8CFE4FFE0CF6A
:10104000E4FFE46EDACFE4FFE2CFDAFFE9CFE4FFBA
:10105000EACFE4FFF6CFE4FFF7CFE4FFF5CFE4FFFC
:10106000F3CFE4FFF4CFE4FFFACFE4FF00EE00F0AB
:10107000100EE80403E3EECFE4FFFBD700EE10F020
:10108000040EE80403E3EECFE4FFFBD7E652F2A43C
:101090000AD0F294FBEC14F00001DD5102E133ECD4
:1010A00010F010EC0EF0E55200EE13F0040EE80420
:1010B00003E3E5CFEDFFFBD700EE0FF0100EE804E1
:1010C00003E3E5CFEDFFFBD7E5CFFAFFE5CFF4FF74
:1010D000E5CFF3FFE5CFF5FFE5CFF7FFE5CFF6FF6F
:1010E000E5CFEAFFE5CFE9FFE5CFDAFFE550E5CF51
:1010F000E0FFE5CFD8FF10001CD8920EE66E95EC0D
:101100001EF0E552FBEC14F04E0EE66E34EC1EF0D1
:10111000E552050EE66EB1EC1EF0E55291EC14F0CE
:10112000D08EF194F28AF28CF28E61EC16F0ADD88A
:10113000FCD70F0EC11202D805EF16F0EDEC14F03B
:10114000050EE126010EF36E040EF3CFDBFF936A6A
:10115000800E946E8B687E6A7F6AF19E7888788AAA
:10116000788C788EDE6ADD6A82EC13F002E60FEC92
:1011700014F00AE286EC13F08D0EE926010E41EC24
:1011800014F0F2E3DB2AF0D7DE6ADD6A82EC13F0BA
:1011900002E60FEC14F005E2A2EC15F0F7E3DB2A0F
:1011A000F5D7DE6ADD6A82EC13F004E60A0E105C05
:1011B000000E11580AE286EC13F0600EE926010ECB
:1011C00041EC14F0F0E3DB2AEED70101586B596BC8
:1011D0005A6B5B6B5C6B5D6B5E6B5F6B00016B6B8B
:1011E0006C6B6D6B6E6B0201696B6C6B6CC26BF23E
:1011F0006CC26AF20201686B68C267F268C266F28A
:1012000068C265F268C264F268C263F268C262F2E0
:1012100068C261F20001696B69C068F069C067F07B
:1012200069C066F00101A5EC14F057C151F157C136
:1012300050F100016A6BDE6ADD6A040E21EC15F0E4
:1012400082EC13F004E6140E105C000E115816E246
:101250008BEC13F0040EFCEC13F0E66EC3EC15F00F
:1012600091EC15F001E3DB2AD950020FE96EDACFD9
:10127000EAFF0A0EEE26000EED22E2D7050EE15C33
:1012800002E2E16AE552B1EF14F0EDEC14F00B0E5E
:10129000E126090EDB6A0A0EDB6A200E0101E76E09
:1012A000B219E8AE02D0E73402D0E750B25D02E2F4
:1012B00097EF0DF06450020B02E097EF0DF0000184
:1012C000CC6BA85132E0D60511E1010ECB6FDE6A7E
:1012D000DD6A82EC13F002E60FEC14F038E255EC14
:1012E00015F0A8EC15F0F5E3DB2AF3D7CB6B010E74
:1012F000CC6FDE6ADD6A82EC13F002E6F2EC14F0E9
:1013000007E255EC15F0DF2A010EF5E3DB2AF3D7EF
:10131000DE6ADD6A82EC13F002E60FEC14F017E2ED
:10132000A8EC15F0F7E3DB2AF5D7D60510E0CB6B78
:10133000DE6ADD6A82EC13F004E6030E105C000E38
:10134000115805E2A2EC15F0F5E3DB2AF3D7090EFC
:10135000DB6A020EF36E040EF3CFDBFF050EDB6AD1
:101360000001CC0501E0D2D0DE6ADD6A82EC13F028
:1013700004E6140E105C000E115801E3C7D0090EEC
:10138000DB6AC3EC15F0EF5001016B5D01E0B8D0F2
:10139000090EDB2AC3EC15F0EFCF64F18BEC13F0F0
:1013A000030EFCEC13F0E76E0A0EE7CFDBFFDB5019
:1013B00001016A5D01E0A4D0090EDB2A0A0EDBCF31
:1013C00063F1010E21EC15F01BEC14F004E6060E9F
:1013D000105C000E115831E2020EDBCFE6FF0A0E60
:1013E000DF02F350040FE552E724E66EE66AFCECF8
:1013F00015F0E76E0A0EE7CFDBFF77EC15F0010E74
:10140000DDEC15F0D5EC14F0F36E0A0EDB50F35C56
:101410000EE1090EDB2A77EC15F0040EDDEC15F079
:10142000600EE926010EEA220A0EDBCFEFFF020E64
:10143000DB2A030EC9E3DB2AC7D7090EDB500708F6
:101440005FE18BEC13F0F3CFE6FFB4EC15F0010194
:10145000606F8BEC13F0010EFCEC13F00101616F77
:101460008BEC13F0020EFCEC13F00101626F605183
:10147000020A34E0030A15E0010A42E1615103E186
:10148000000166810AD0610503E10001668305D091
:10149000020E615D02E1000166850001050EF36F39
:1014A0002FD0D950040FE96EDACFEAFF080EEE18FC
:1014B00001E1ED500FE062515013F5EC13F0500EC6
:1014C000E926010EEA2261C1EFFF040EDB2A050EB8
:1014D00001E3DB2A0001050EF46F12D06151020A0C
:1014E0000AE0030A05E0010A08E100016A8105D06B
:1014F00000016A8302D000016A850001050EF26FC7
:10150000DF2A010E01E232D7DB2A30D70101585120
:10151000591102E1000E08D058C1E9FF59C1EAFF94
:10152000EF50800B01E0010E000920E166C06AF275
:1015300067C06BF268C06CF269C06DF20001666B47
:10154000676B686B696BF351000810E2040EE66E7E
:101550006A0EE66E020EE66E010EE66E32EC14F0D6
:10156000F3CF58F1F4CF59F10001F30701015C51B9
:101570005D1102E1000E08D05CC1E9FF5DC1EAFF28
:10158000EF50800B01E0010E000929E150C161F22A
:1015900051C162F252C163F253C164F254C165F2A7
:1015A00055C166F256C167F257C168F2A5EC14F056
:1015B00057C150F10001F451000811E2080EE66E27
:1015C000610EE66E020EE66E010EE66E030E32EC62
:1015D00014F0F3CF5CF1F4CF5DF10001F4070101E9
:1015E0005A515B1102E1000E08D05AC1E9FF5BC1FC
:1015F000EAFFEF50800B01E0010E000918E16AC01C
:1016000069F200016A6BF251000811E2010EE66E08
:10161000690EE66E020EE66E010EE66E020E32EC0A
:1016200014F0F3CF5AF1F4CF5BF10001F20700019F
:101630006B516C1102E1000E08D06BC0E9FF6CC069
:10164000EAFFEF50800B01E0010E000901E06FD2CC
:10165000DE6ADD6A82EC13F004E6400E105C000ED8
:1016600011580AE286EC13F0B60EE926020E41ECA0
:1016700014F0F0E3DB2AEED702017651610A01E1B2
:1016800036D2010A01E122D2330A01E1F8D1010A7E
:1016900001E1C8D1030A01E1ABD1010A01E17AD12C
:1016A000110A01E169D1010A01E147D1C30A01E14F
:1016B00012D1010A01E1D9D0030A01E199D0010A4E
:1016C0005EE0D60A01E025D2560EB66F600EE66ED9
:1016D000000EE66E26EC1EF0E552E552070EF3CF43
:1016E000DBFF106ADB50E76E1018E8AE02D0E7347B
:1016F00002D0E750105C34E2070EDBCF11F03E0E53
:10170000E76E1118E8AE02D0113403D0E750D8804C
:10171000115426E3DE6ADD6A7EEC15F0070EDBCF9E
:1017200012F0136A12BE136811501318E8AE02D0FB
:10173000133404D01250105C135011580CE286EC94
:1017400013F0600EE926000EEA22EF50F7EC15F0D8
:10175000E3E3DB2AE1D74EEC15F0EA22EF6A02D090
:101760000201B76BA1EC14F002E1000E04D09DEC75
:1017700013F001E0010E000901E0CBD197D17751C0
:101780007825C80826E3010E106E7851D8801054D1
:1017900020E378513D081DE3DE6ADD6A61EC14F058
:1017A00011AE02D0D89003D0105C000E11580EE29A
:1017B000B8EC15F07751126E136ADE50122466EC05
:1017C00014F00BEC15F0EAE3DB2AE8D70201B76B63
:1017D00001D0B769800EDAEC15F002E1000E04D0FA
:1017E0009DEC13F001E0010E000901E092D15ED101
:1017F000010E106E7751D880105428E377511408E9
:1018000025E30A0E785D22E1DE6ADD6A61EC14F000
:1018100011AE02D0D89003D0105C000E11580BE22C
:10182000B8EC15F0E1EC15F066EC14F00BEC15F0EB
:10183000EDE3DB2AEBD70201B76B7705EA6A710F9C
:10184000E96E000EEA227DC2EFFF01D0B769810E7A
:10185000DAEC15F002E1000E04D09DEC13F001E08B
:10186000010E000901E055D121D1820EB66F7751EA
:101870007825C80822E3010E106E7851D8801054E4
:101880001CE378513D0819E378C2B7F2DE6ADD6ADD
:1018900061EC14F011AE02D0D89003D0105C000EB1
:1018A00011580CE202017751126E136ADE501224B5
:1018B0005FEC15F0EDE3DB2AEBD7B769A1EC14F090
:1018C00002E1000E04D09DEC13F001E0010E0009CE
:1018D00001E01FD1EBD0830EB66F010E106E775171
:1018E000D88010541CE37751140819E30A0E785D70
:1018F00016E178C2B7F2DE6ADD6A61EC14F011AE6F
:1019000002D0D89003D0105C000E115809E20201F9
:10191000E1EC15F05FEC15F0F0E3DB2AEED7B769E8
:10192000A1EC14F002E1000E04D09DEC13F001E0F4
:10193000010E000901E0EDD0B9D0400EB66F0001F4
:10194000D0510201B76F0001D2510201B86FEEC051
:10195000B9F2EFC0BAF2F0C0BBF2F1C0BCF2A1EC38
:1019600014F002E1000E04D09DEC13F001E0010E32
:10197000000901E0CED09AD0410EDAEC15F002E178
:10198000000E04D09DEC13F001E0010E000901E00F
:10199000C0D08CD0500EB66F0001CB050DE1DE6AD1
:1019A000DD6A82EC13F002E6F2EC14F014E26AEC69
:1019B00015F0F7E3DB2AF5D7DE6ADD6A82EC13F077
:1019C00002E6F2EC14F007E24EEC15F041EC14F0F4
:1019D000F5E3DB2AF3D7A1EC14F002E1000E04D00A
:1019E0009DEC13F001E0010E000901E092D05ED001
:1019F0000001EA6B0201770504E10001010ED66FD8
:101A000002D00001D66B0201510EDAEC15F002E1B2
:101A1000000E04D09DEC13F001E0010E000901E07E
:101A200078D044D0520EB66F0001CB050DE1DE6ACE
:101A3000DD6A82EC13F002E60FEC14F014E26AECBB
:101A400015F0F7E3DB2AF5D7DE6ADD6A82EC13F0E6
:101A500002E60FEC14F007E24EEC15F041EC14F046
:101A6000F5E3DB2AF3D7A1EC14F002E1000E04D079
:101A70009DEC13F001E0010E00094BE117D0770552
:101A800005E10001010EEA6FD66F03D00001D66BAD
:101A9000EA6B0201530EDAEC15F002E1000E04D0FD
:101AA0009DEC13F001E0010E000933E1400EE66EFB
:101AB000B60EE66E020EE66E010EE66E040E32EC17
:101AC00014F0F3CF6DF0F4CF6EF023D0600EB66F4C
:101AD0000001EB6BDE6ADD6A82EC13F002E6F2ECE9
:101AE00014F017E288EC15F0F7E3DB2AF5D7610E66
:101AF000B66F0001010EEB6FDE6ADD6A82EC13F057
:101B000002E60FEC14F005E288EC15F0F7E3DB2AAF
:101B1000F5D7400EE66E760EE66E020EE66EE66ACB
:101B2000040E32EC14F0F3CF6BF0F4CF6CF00B0E2C
:101B3000E15C02E2E16AE552B1EF14F0120012003A
:101B400012001200FDEF1CF012001E0EE66E010ED8
:101B500099EC14F0020E99EC14F0030E99EC14F0C9
:101B6000040EE66E97EC1AF0E552E552120064841A
:101B70000101080EB06F070EB16FB007000EB15B28
:101B8000B051B111FAE164941200D9CFE6FFE1CF70
:101B9000D9FFFD0EDBCF06F0FE0EDBCF07F0720E95
:101BA000061801E1075033E0E868061802E17F0EED
:101BB00007182BE0740E061801E1075024E0750E9B
:101BC000061801E107501DE0730E061801E10750E9
:101BD00016E0030E061801E107500FE0020E06188A
:101BE00001E1075008E0010E061801E1075001E08D
:101BF00010D0ABDF0FD0A8DF0DD0A4DF0BD0A0DF5B
:101C000009D09CDF07D09BDF05D09BDF03D000000D
:101C100001D000D0010E00D0E552E7CFD9FF12006D
:101C2000EDEC14F00B0E46EC14F028EC15F001E28C
:101C3000F2D1000ED880E055000EE15501E2EBD163
:101C4000DD5101E095D0DB6BDC6BEB0504E1090EA7
:101C50008DC1DBFF02D06EEC14F0DB5001E1DBD173
:101C60000001020EDD6FEB0505E18EC1E7F08FC1CB
:101C7000E8F009D08DC1E7F0F00EE715E840E84044
:101C80003F0BE76FE86B07EC08F0090EDB50050827
:101C900009E1380E0001E75D05E1B40EEC6FED6B74
:101CA000590E05D09E0E0001EC6FED6B4E0EE66EE8
:101CB00034EC1EF0E552090EDB0408E1200EC0EC06
:101CC00014F0100E2FEC15F00C0E42D0090EDB5064
:101CD00002080CE15A0EC0EC14F02D0EE06FE16B1F
:101CE000050EE36FE46FE56F100E32D0090EDB5086
:101CF00003080CE1180EC0EC14F0060EE06FE16B67
:101D0000E36FE46F0C0EE56F060E22D0090EDB5078
:101D100004080AE1DBEC14F0040EE36F080EE46F34
:101D2000040EE56F140E14D0090EDB50050805E112
:101D30002C0EC0EC14F0160E08D0090EDB5006086D
:101D400009E11E0EC0EC14F05A0E2FEC15F00D0E2A
:101D5000E66F61D183EC15F01BEC14F002E60FEC9A
:101D600014F001E3E7D0A4EC13F0F6E3DB2AF4D798
:101D7000020EDD5D01E09BD0EB0503E13BEC15F0CD
:101D800003D06EEC14F0010EABEC13F0106E116A80
:101D90001050DB1905E11150DC1902E1E85106E0B1
:101DA000FF0ED880DB55000EDC5502E2F00E0DD0A0
:101DB000E751106E116A1050DB190AE11150DC195D
:101DC00007E1E851000804E2030EB6EC14F015D068
:101DD000AEEC15F010E352EC14F00DE26EEC15F0E1
:101DE00004E0E8427F0BE706FCE1010BE76E080E1A
:101DF000E7CFDBFF02D0080EDB68DB5004E1BBEC71
:101E000014F0E45110D0080EDB0406E10001E551A6
:101E1000DE6FDF6BE65107D0080EDB50F00806E1FD
:101E2000BBEC14F0C80EE06FE16B14D0080EDB5071
:101E3000030809E1BBEC14F0040EE06F010EE16F42
:101E4000080EDD6F07D0080EDB50FF0803E1DBEC66
:101E500014F0DD6B090EDB5003080DE10001E7050E
:101E6000106E116AE850DB1906E11150DC1903E12C
:101E7000C80EE06FE16B19EC15F010E383EC15F080
:101E80001BEC14F002E60FEC14F005E2A4EC13F0E6
:101E9000F7E3DB2AF5D70001DD6BBDD0080EDB5080
:101EA00001E1B5D0080EDB0401E0B5D0B0D0080EDA
:101EB000DD5D47E1100EDD6FEB0503E13BEC15F056
:101EC00003D06EEC14F0010EF36E0A0EF3CFDBFFBD
:101ED000090EDB0405E1200EC0EC14F0100E1AD040
:101EE000090EDB50020805E15A0EC0EC14F02D0E6D
:101EF00011D0090EDB50050805E12C0EC0EC14F0E2
:101F0000160E08D0090EDB50060807E11E0EC0ECC5
:101F100014F05A0EE06FE16B7ED083EC15F01BECF1
:101F200014F002E60FEC14F005E2A4EC13F0F7E372
:101F3000DB2AF5D70001DD6BE76BE86B090EDB6A86
:101F40006AD0100EDD5D67E1EB0503E13BEC15F0B7
:101F500003D06EEC14F0010EABEC13F0E825106E1C
:101F6000116AE850DB1902E11150DC1906E0FF0E9E
:101F7000D880DB55000EDC5504E2F00EB6EC14F010
:101F800015D0AEEC15F010E352EC14F00DE26EEC4F
:101F900015F004E0E8427F0BE706FCE1010BE76E79
:101FA000080EE7CFDBFF02D0080EDB68DB5004E150
:101FB000BBEC14F0E45110D0080EDB0406E1000184
:101FC000E551DE6FDF6BE65107D0080EDB50F008FD
:101FD00006E1BBEC14F0C80EE06FE16B07D0080E11
:101FE000DB50FF0803E1DBEC14F0DD6B19EC15F0BE
:101FF0000EE383EC15F01BEC14F002E60FEC14F08A
:1020000004E2A2DBF8E3DB2AF6D70001DD6B000176
:10201000DB2B000EDC2328EC15F00DE2ECC0E6FF14
:10202000EDC0E6FFDDEC1DF0E552E5520001DE07F4
:10203000000EDF5B0FD0000ED880E055000EE1559A
:1020400007E291EC14F00001E007000EE15B02D022
:1020500091EC14F0CFEC14F00B0EE15C02E2E16ABB
:10206000E552B1EF14F0EDEC14F0110E46EC14F063
:10207000090EDB6A0A0EDB6A0B0EDB6A0C0EDB6AEA
:10208000010EF36E0D0EF3CFDBFF0E0EDB6A0F0EAB
:10209000DB6A100EDB6A8250800B800A01E0010EC1
:1020A000010804E10001010ED96F02D00001D96BD3
:1020B000D90504E1D22B000ED32303D0D02B000E80
:1020C000D123DA510BE1D90509E1E1EC14F006E284
:1020D000000ED880D055000ED15508E3E1EC14F085
:1020E00001E36AD283EC14F001E366D2CF5101E040
:1020F000CFD0080EDB68D55111E1F6DA280E4AEC94
:1021000015F00CE3F8DA380E4BDB08E340EC15F081
:1021100005E2C6EC15F002E2010ED56FD5510FE1D4
:1021200097EC15F00CE3E7DAB40E3ADB08E340EC89
:1021300015F005E2C6EC15F002E2020ED56FD5519E
:1021400021E1D2DA180E4AEC15F01CE3D4DA240EA1
:1021500027DB18E358DBD251F35CD351115812E25C
:10216000D0C012F0D1C013F0050E1302F3CF13F05C
:102170001202F4501326F350D25D1350D35902E2E9
:10218000030ED56FD55111E1AFDA2C0E4AEC15F0E4
:102190000CE3B1DA580E04DB08E340EC15F005E27D
:1021A000C6EC15F002E2050ED56FD55129E197EC8A
:1021B00015F026E3A0DA960EF3DA22E3D2C010F08F
:1021C000D3C011F0010ED89010361136E806FBE1AD
:1021D0000001D051105CD151115812E2D2C012F05E
:1021E000D3C013F0020ED89012361336E806FBE186
:1021F00000011250D05D1350D15902E2060ED56F86
:10220000D5511DE171DA080E4AEC15F018E366ECC1
:1022100015F015E3020ED880D255000ED3550FE20B
:10222000060ED25D000ED3590AE2040ED56F0E0ED3
:10223000ABDB03E3010E9ADB02D0080EDB6AC7DBDF
:10224000D55111E09AEC15F0C9EC15F001E6E7DA8A
:1022500005E2CDEC15F0F8E3DB2AF6D7D5C085F022
:102260000001010ECF6F080EDB0404E0080EDB5006
:1022700001E0A2D1080EDB0403E1010E866F04D059
:10228000080EDB5001E1866B010ECD6FCE6B94D151
:10229000CF0501E0D3D0080EDB68D5050BE19FEC3C
:1022A00015F04DE328DA140E7BDA49E3080E6CDBF7
:1022B00041E243D0020ED55D0BE116DA050EEADBF2
:1022C0003EE366EC15F03BE30C0E5EDB36E332D00A
:1022D000030ED55D12E108DA060EDCDB04E30BDA4F
:1022E000180E5EDA04E26DDB2AE20DDB28E2090E4D
:1022F000D25D000ED35921E31DD0050ED55D03E05C
:10230000060ED55D0BE19FEC15F019E3F4D9170E1D
:1023100047DA15E3070E38DB10E30CD0040ED55D69
:102320000EE1E2D9080EB6DB0AE3D0DB08E30E0EBD
:102330002BDB03E3010E1ADB02D0080EDB6A080E6A
:10234000DB0403E0080EDB5043E12FDA1DE16ADA1B
:102350003BE3BDEC15F038E2080EDB0409E17CDA62
:1023600002E019DBFEE1F350030ED8DBF31009D0D5
:10237000080EDB5029E170DA02E00DDBFEE1E9EC4A
:1023800015F0E66E030E1CD04DDA1EE3C0EC15F01E
:102390001BE2080EDB0409E15FDA02E0FCDAFEE191
:1023A000F350010EBBDBF31009D0080EDB500CE13B
:1023B00053DA02E0F0DAFEE1F0EC15F0E66E010E21
:1023C00088D9E552E750EF6E0001CD2B000ECE23E9
:1023D000EA0526E1D50509E0020ED55D06E0050E09
:1023E000D55D03E0060ED55D0DE1280ECDDA0AE3DA
:1023F000F40ED880D055010ED15504E3080ECF6FEE
:10240000CD51E96FF40ED880D055010ED15511E3AE
:10241000FF0ECD1901E0CFD0CE5101E0CCD009D0D4
:1024200072DA07E3FF0ECD1901E0C5D0CE5101E00D
:10243000C2D0020ECF6FCD51E96FBDD0080ECF5D77
:1024400039E1D50509E150D9280E24DB27E353D91A
:10245000380EA6D923E31FD0020ED55D07E167DB56
:102460001DE349D9B40E9CD919E315D0050ED55DED
:1024700009E13AD92C0E0EDB11E33DD9580E90D963
:102480000DE309D0060ED55D09E151DB07E333D931
:10249000960E86D903E39BDA100ECF6F34DA07E38A
:1024A000FF0ECD1901E088D0CE5101E085D0020E9B
:1024B000CF6F82D0100ECF5D01E07ED0080EDB68BA
:1024C000D5050AE13CDB29E316D9140E69D925E3C9
:1024D000080E5ADA1DE21FD0020ED55D0AE104D9BA
:1024E000050ED8DA1AE3F2DA18E30C0E4DDA13E32C
:1024F0000FD0050ED55D03E0060ED55D0EE11FDBA6
:102500000CE3F9D8170E4CD908E3070E3DDA03E3C4
:10251000010E2CDA02D0080EDB6A080EDB0403E0A1
:10252000080EDB503FE141D91BE17CD937E325DBC5
:1025300035E2080EDB0409E18FD902E02CDAFEE176
:10254000F350030EEBDAF31008D0080EDB5026E14F
:1025500083D902E020DAFEE13CDBE66E030E1AD0FE
:1025600061D91CE30DDB1AE2080EDB0409E174D922
:1025700002E011DAFEE1F350010ED0DAF31008D0D8
:10258000080EDB500BE168D902E005DAFEE128DB3A
:10259000E66E010E9ED8E552E750EF6E0001CD2B9E
:1025A000000ECE23B0D905E3FF0ECD1904E1CE51C4
:1025B00002E1020ECF6F0BDA020ECF5D6CE1EA058D
:1025C0001FE1CD51E95D06E1060EE9C0DBFF070E14
:1025D000DB6A09D0060EE9C0DBFFE951CD5DE76E8D
:1025E000070EE7CFDBFF080EF36E060EDBCFF4FF1E
:1025F000F350F45C16E2060EDB6A070EDB6A11D0BC
:10260000CDC010F0CEC011F0D89011321032D89059
:1026100011321032FF0E1016000E1116060E10C0E9
:10262000DBFF060EDB50000824E284DAB2DA01E6B2
:10263000F6D810E2DAD8B4DAEF50E66ED6D8A80EA3
:10264000E926000EEA22E552E750EF6EA6DAEEE345
:10265000DB2AECD70001EA0507E1060EDBCFA9F083
:10266000070EDBCFAAF00ED0060EDB38F00BA81356
:1026700009D060DA8EDA01E6D2D804E28EDAFAE323
:10268000DB2AF8D70001040ECF6FD76BD86BCD6B68
:10269000CE6BE96BD56B040ECF5D12E1D95104E12D
:1026A000D72B000ED82302D0D76BD86BF40ED75D92
:1026B000010ED85905E3CF6BD26BD36BD06BD16BC6
:1026C000D9C0DAF06CD9110EE15C02E2E16AE552A0
:1026D00048D1E76E090EDBCFE9FF0A0EDBCFEAFF38
:1026E000E7506BDAD0EF15F0D251D025106ED351F0
:1026F000D121116E1200D251D025126ED351D121A9
:10270000136E1200FBD9D89011501200DECFE9FFF2
:10271000DDCFEAFF1200F2D90A0E1102F3CF11F059
:102720001002F3CF10F0F4501126120046DAB60E64
:10273000E926020EEA2291EF15F06DC0E9FF6EC0A6
:10274000EAFFEF50800B1200D2D92FDAEF6A020EA7
:10275000DB2A030E1200F36E0A0EF3CFDBFF080E26
:10276000106E116ADBC006F0DCC007F00B6E11C002
:102770000CF0CCEC1EF0040E06C0DBFF050E07C00B
:10278000DBFFDBC010F00001116A070E1016060E09
:1027900010C0DBFF070E11C0DBFF0001E751120084
:1027A000D8801254000E13541200080E106E116AD5
:1027B000CDC006F0CEC007F00B6E11C00CF0CCEC13
:1027C0001EF0090E06C0DBFF0A0E07C0DBFFCDC0FE
:1027D00010F0116A070E10160B0E10C0DBFF0C0E66
:1027E00011C0DBFF0001EA051200040EDBCFE9FF98
:1027F000050EDBCFEAFF12001026000E112210C0DA
:10280000E6FFB4EF15F0D0C010F0D1C011F0030E08
:102810001102F3CF11F01002F45011261200230E12
:102820004AEF15F0090EDBCF10F00A0EDBCF11F0E6
:10283000000E4AEF15F0020EDBCF10F0030EDBCFD7
:1028400011F0D89011501200B8D9760EE926020E78
:10285000EA22EF50E66E12000D0EDB50F36E0B0E07
:10286000DB501200E66EC7EC1AF0106E050EE15E4A
:1028700010501200040EDBCF10F0050EDBCF11F06C
:102880001200EA22EF6ADF2A010E1200E126DE6A58
:10289000DD6A39D94FD9060EDB6A070EDB6A080EEE
:1028A000DB6A12000A0EDB50E76E040EDBCF12F07B
:1028B000050EDBCF13F0E7501226000E1322230E75
:1028C000A0D11CD90201785100011200106EDD5018
:1028D0001320116E10C0E6FFE66E12000F0E01010C
:1028E0008D15E76E090EE7CFDBFF120059D9EF6AAD
:1028F000040EDB2A050E1200090EDBCF12F00A0EC1
:10290000DBCF13F01200C80ED880D055000ED15581
:102910001200E75052D949D9EF5010C0E7FFE752F3
:102920001200000EE66EE66ADDEC1DF0E552E5529F
:102930001200E66E97EC1AF0E552E5521E0EE66EB6
:10294000120000016D516E111200576B57C156F104
:1029500057C155F157C154F157C153F157C152F105
:102960001200E16EE552E7CFD9FF1200F36E080EB8
:10297000F3CFDBFF12000001E351DE6FDF6B1200CB
:102980000001DE6FDF6B1200D05D000ED159120026
:102990000CD991EF15F0D890F336E8061200AED8B6
:1029A00010C0F3FF11C0F4FF12006A0EE926010EF9
:1029B000EA22EF5012000001DE6BDF6BE06BE16B8F
:1029C0001200000ED880D255000ED3551200010E11
:1029D000D26FD36BD06BD16B1200D9CFE6FFE1CFB2
:1029E000D9FF1200070E4AEF15F05A0E4AEF15F004
:1029F000040E4AEF15F06A0EE66EE66879EC1EF0FA
:102A0000E552E55212006A0EE926010EEA22E5526D
:102A1000E750EF6E120060EC1EF0E552E552E55211
:102A2000DF2A010E1200E7501026000E11224AEF95
:102A300015F0F00EF36E080EDBCFF4FFF350F45CEC
:102A40001200F36E020EF3CFDBFF030EDB6A1200FF
:102A50000001000ED880DE55000EDF551200E06F39
:102A6000E16B040EE36FE46FE56F1200710EE9266F
:102A7000000EEA221200090E8DC1DBFF030E1200C8
:102A8000D251D05DD351D1591200F350D25D1150C3
:102A9000D3591200105C000E1158120037DE010EDF
:102AA0008CD8B60EE926020E120030DEA80EE926FA
:102AB000000EEA22EF50E66E29DE03EF15F006DF86
:102AC0009BD8E66E23DE020E96EF13F014DE1C0E8A
:102AD000D0EF13F01BDE69DFF7EF15F0060EDBCF4A
:102AE00010F00A0EDB50E76E80DE89EF14F0020E64
:102AF000DBCFE9FF030EDBCFEAFF1200DECF10F0E1
:102B0000DDCF11F01200020EDB6A030EDB6A120049
:102B1000FDDD010E99DEFADDC8EF14F0DADDEF50CD
:102B20001200E552E750EF6EDF2A010E1200DCDDE5
:102B3000F5EF14F0040EDB6A050EDB6A1200D4DD3B
:102B4000F8EF14F0E3DD6A0EE926010E41EF14F010
:102B5000DDDDA80EE926000E41EF14F00A0EDB5071
:102B6000E76E88DE13EF15F011C0E6FFFCEF15F0FD
:102B7000CDDD030E69DE02011200BEDE200E41D063
:102B8000BBDE060E3ED0C2DD36EF15F03CDE45EF73
:102B900015F070DED8901150120027DE76EF14F099
:102BA000850EE926000EEA2212008D0EE926010E9E
:102BB000EA221200B66FA1EF14F0E926000EEA2215
:102BC000120077050A0DF350126E136ADE50F324DB
:102BD0001200F350F31C106E030EA0DF101412004D
:102BE000F350F31C106E010E99DF10141200E66E04
:102BF0008DDD010E96EF13F058EC1EF0E552E55214
:0A2C00001200125C000E13581200BF
:062C0A001BEC1CF0A0947D
:102C10000F015F6B626A536B69EC1BF09FEC1BF05A
:102C2000DF6AA7EC1BF003E259EC1BF0FAD7648CC7
:102C30000F015C6B6498649C62A607D062960101E8
:102C4000D16BD66BD76BD86BF7D70101010EEE6F46
:102C5000EF6FF06BF16BDE6BDF6A050EDF5C1AE283
:102C6000EA6ADF341EEC1CF0EA22EE6AED6AEA6AD8
:102C7000DF3425EC1CF0EA22EE6AED6ADF5038EC16
:102C80001CF0EA22EF6ADF5033EC1CF0EA22EF6A14
:102C9000DF2AE3D70101080EC36F020EC46F0F01D4
:102CA000160E536F0201500E026F020E036F080ED4
:102CB000016F840E006F0101B36BB26BE55233EF0D
:102CC0001BF01BEC1CF00101B2510BE1646A606A5D
:102CD0009FEC1BF064B602D06486FCD70101010EA4
:102CE000B26FB20508E164BA06D0626A606A6080B9
:102CF0006088020EB26F6250040B05E06050040B56
:102D000002E0629492D864B23ED06250010B08E0B7
:102D10006050010B05E079DF0101040EB26F629093
:102D20006250100B05E06050100B02E073D86298FF
:102D300062AC08D060AC05D0BEEC1BF0730E20EC8A
:102D40001BF0629C6250200B04E06050200B01E0FD
:102D50004DD86250020B0CE06050020B09E0BEEC53
:102D60001BF0E6687F0EE66E2CEC1CF00F015F6B2B
:102D7000040E0101E76EB219E8AE02D0E73402D0CA
:102D8000E750B25D02E2A1942ED060A62BD0DF6A9C
:102D9000040EDF5C27E262A625D063CFDFF10101DC
:102DA000DF51780BE842E842E842E06F6296DFB517
:102DB00004D0E05133EC1CF003D0E05138EC1CF0AF
:102DC000EA22EF70E05102E13ED80AD0000EE66E32
:102DD000E66ADF0EE66E010EE66E720E20EC1BF068
:102DE000DF2AD6D7A194E55233EF1BF00F0153A190
:102DF0000FD03FEC1BF0EF50800809E129EC1BF0ED
:102E0000EF50840804E13FEC1BF08C0EEF6E539101
:102E1000629A12006084629864820101010EDE6F82
:102E200085EC1BF0750E20EF1BF00101DE6B85ECCD
:102E30001BF0740E20EC1BF06492609462A402D02C
:102E40006294FCD712001BEC1CF0FD0E0101DF1593
:102E50003EE17E0EDF15E8407F0B040DF3CFB5F1A8
:102E6000F4CFB6F1000EB527020EB623B5C1B7F107
:102E7000B6C1B8F1B7753FEC1BF0EF503C0BE84220
:102E8000E8420D0822E1DF6A080EDF5C19E23FEC40
:102E90001BF0020EE926000E72EC1BF0EF50E66EFE
:102EA000DF50EA6A500FE96E020EEA22E552E7505F
:102EB000EF6EE5DB4BEC1CF0EE2AEF22DF2AE4D7C5
:102EC000DEDBEBEC1BF00AD807D025D805D0FD0ED1
:102ED000DF15040801E12ED8E552C5D30101CD6B01
:102EE000ED6BF06BF16BE16BCE6BB3DBEF9EC375FB
:102EF000B0DBEF9EC375DAEC1BF0EF9ED16BD26BAB
:102F0000D36BD66BD76BD86B53D885EC1BF0030E05
:102F100097DB67EF19F0020E0101CE5D02E1D3EFFE
:102F200019F0CE6BE15104E182DB8C0EEF6E1200E2
:102F3000E16B12001BEC1CF08CDBEF50400B01E04E
:102F4000010EDF6E0101C375080EB25D0BE152C2C6
:102F50005CFF0F015C5103E00101100E02D0010182
:102F6000040EB26FCE0513E174DB8EDBDDD9020EE9
:102F70000101CD5D03E16DDB840E07D0DF5003E17D
:102F800068DBC80E02D065DB880EEF6E0FD0D6AFBF
:102F90000CD0D951DA1107E005D0DAC1FAFF0101EE
:102FA000D951F96EFADF0101D69FCE6BE5525BD3A2
:102FB00002015051600BE842E842E842E842E84230
:102FC000000901E0120051510C0A45E00B0A3FE0F4
:102FD0000C0A31E0010A22E00B0A1EE0020A1CE0A2
:102FE000030A18E0080A10E0010A0CE00F0A08E0E2
:102FF000030A01E012000101D18F080EB26F120026
:10300000F1EF18F037EF1AF00101B30ECF6F010E98
:10301000D06F0CD02EEF19F02CEF18F054510101A5
:10302000CF6FD06BB40ECF27010ED023D181010E0C
:10303000D26FD18F12000101D18F02015451EA6A7F
:10304000B40FE96E010EEA2252C2EFFF12005DDBFF
:10305000020E20EF1BF0120001DB030EE12602013D
:10306000520510E150511F0B00090CE10101D18FF5
:10307000030E0201515D04E10101010EDD6F02D07A
:103080000101DD6B0201525163E150511F0B020837
:103090005FE154510F0B00095BE054510F0B040822
:1030A00057E3200E0101B25D53E1D18F020154BFFD
:1030B00004D0ACDB30DB35DB03D0ADDB2CDB35DB28
:1030C000EA22020EEFCFDBFF60DB010B03E1000E13
:1030D000DF9401D0DF8454BF02D098DB01D09BDBAA
:1030E000EA22DECFEEFFDDCFEDFF030E515D0CE1F6
:1030F000C4DB07E054BF02D014DB01D016DBEA22A8
:10310000EF82840ECDDB24D0DF74B7DB06E09CDADF
:10311000EF9E9ADAEF8C69DB02D096DAEF8CDF74DF
:1031200034DB020B06E1A9DB11E08EDAEF50040B71
:103130000DE1020154BF02D0F4DA01D0F6DAEA223E
:10314000EF923B0E106E9DDB50DB02D03B0E99DB05
:10315000030EE15C02E2E16AE552E16E84D2010114
:10316000EE5121E1010EEE6FEF511DE1010EEF6F07
:10317000020ECE5D07E16DDAEE52EF6A6ADAC80E32
:10318000EF6E1200CE050FE1E16B79DAEE52080E18
:10319000EF6E75DA20DB73DA840EEF6E010EE16FED
:1031A00046DA800EEF6E12000101F06BF16B020E39
:1031B000CE5D04E16ADB68DAFDDA10D0D25102019B
:1031C000565D0101D3510201575904E256C2D2F1B2
:1031D00057C2D3F1A9D83DDA57DA3BDAC80EEF6E01
:1031E0001200800E0201505D38E10101C00ED16F66
:1031F00002015351030A1AE0010A09E0030A2BE114
:103200000101A80ECF6F380ED06F120E1ED0CBDA90
:10321000F10EF626390EA3DA020E0101BDDAF5CF62
:10322000D2F1030EB9DAF5CFD3F11200030E525DDD
:103230000FE2B9DAF30EF626390E91DACFC1F6FFB6
:10324000D0C1F7FF0800F5500101D26FD36B120017
:103250000101D16B12000101D16B1200C2DA02012F
:10326000586B596B50511F0B020A11E0030A0CE016
:10327000010A1CE10101D18F020158810101DD0524
:1032800015E10201588312D00101D18F0FD0010145
:10329000D18F020154BF02D0B9DA01D0BCDA3BDAD7
:1032A000D3D9EF50040B02E0010E586F0101D1AFEA
:1032B00007D0580ECF6F020ED06FD181020ED26FA1
:1032C000020EE15C02E2E16AE552E16ECCD1649863
:1032D0000101D1BF0DD0D6AF09D0020ECE6FF15192
:1032E00001E162DF0101EF6BEE6B1200FFEF1BF0FB
:1032F000020150AF0DD00101010ECE6FF05101E17E
:1033000053DF0101EF6BEE6BED510DE1AFEF18F004
:103310000101020ECE6F8BD9840EEF6EEF6BEE6B58
:10332000ED5101E11CDF120086DA080EDF6E0101AB
:10333000D25D000ED3590AE2D2C1DFFFCD5102E1C6
:10334000010E03D0CD0502E1020ECD6FDF50116AF0
:10335000E850D25DD26F1150D359D36F7AD9EE5263
:10336000DFCFEFFF580EDB6F020EDC6FD1B10DD057
:10337000DF5017E0CFC1F6FFD0C1F7FFCF2B000E13
:10338000D0230800F550B4D9F3D7DF500AE0CFC1FD
:10339000E9FFD0C1EAFFCF2B000ED023EF50A8D910
:1033A000F4D7E55260D11DDA6AD9EE52EFCFDFFFD4
:1033B000DFCF10F010500101D75D000ED85902E2A6
:1033C000D7C1DFFFDF50106E116AE850D75DD76FAD
:1033D0001150D859D86F010EDB6ADF50F36E010E21
:1033E000DBCFF4FFF350F45C16E2010EDB50EA6A27
:1033F000580FE96E020EEA22EF50E66ED4C1E9FFE3
:10340000D5C1EAFFD42B000ED523E552E750EF6E6D
:10341000010EDB2AE2D7000ED880D755000ED85512
:103420000DE233DA31D92BD9EF50400B03E1C2D989
:10343000C80E02D0BFD9880EEF6E12D0F8D8840E15
:10344000EF6ED951DA1107E005D0DAC1FAFF0101B8
:10345000D951F96EFADF0101D69FED5101E17FDE0E
:10346000020EE15C02E2E16AE552E16EFCD0E3D9D2
:103470000101D18F2ED9DF6A6AD902E21AD9FCD7AD
:10348000648C010EE66EE66AE66AB40EE66E010E24
:10349000CAD9649C0101080EC36F020EC46F000EEE
:1034A000B56F020EB66FB5C1B7F1B86F52C2B3F1C6
:1034B000B35102E1100E0BD0010EE66EE66AB30EB8
:1034C000E66E010EE66E010EBBD80101200EB26F52
:1034D000E552C9D086D9000EDE6E020EDD6EDAD856
:1034E000040DF4CF11F0D9CFE9FFDACFEAFFF350A2
:1034F000EE261150ED22A8D8EF9EFD0EDB5002E122
:10350000D3D801D098D8EA22DECFEEFFDDCFEDFF91
:103510009BD8EF9C99D8040EE926000EEA22EF8C86
:10352000020EE15C02E2E16AE552E16E9CD059D9FB
:10353000FD0EDBA402D0E66A1AD9FD0EDBA203D091
:10354000010EE66E14D9FE0EDB50116A530F106E99
:103550000F0EEFD879D8FD0EDBCFEFFF020EE15C46
:1035600002E2E16AE552E16E7ED03BD9FE0EDB500D
:1035700002E145D905D08ED822D98CD8010F1FD9A8
:10358000020EE15C02E2E16AE552E16E6CD029D9FB
:10359000FD0EDB5002E04FD801D086D8BCD8D9CF81
:1035A000E9FFDACFEAFFEE50ED1003E1F36AF46AC7
:1035B00021D04AD870D9FB0EDBCFEEFFFC0EDBCF5B
:1035C000EDFF42D8EE52FA0EDBCFEFFF400E59D995
:1035D000880E66D9FD0EDB5002E02DD801D064D8EC
:1035E000EA22EF74DECF10F0DDCF11F010C0F3FF50
:1035F00011C0F4FF020EE15C02E2E16AE552E16E05
:1036000032D02CD864A812D00BD9400EEE16EE6A38
:10361000EE6AEE6A05D9EE7C0ED8EA22EF74400E0F
:10362000106EFED81050EF16FBD8EF7C1CD02DD9B1
:10363000D2D8DAEF1BF0FE0EEA6ADB341EEF1CF084
:10364000E66EE66A2CEF1CF0DECFE9FFDDCFEAFF85
:103650001200C3C1E9FFC4C1EAFF1200D9CFE6FFDF
:10366000E1CFD9FF1200E552E7CFD9FF1200545144
:103670000F0BE96EEA6AD890E936EA361200B5C156
:10368000E9FFB6C1EAFF120006D9580EEE6E020E2F
:10369000ED6E1200FD0EDB50E824126EFE0EDB50C4
:1036A000040DF35012241200FE0EEA6ADB3425EFFB
:1036B0001CF0DF50040DF3CFE9FFF4CFEAFF000E5A
:1036C000E926020EEA22EE6AEE6AEE6AEE6ADF2A66
:1036D0001200040EE66EE66AE66A540EE66E0F0EFF
:1036E00013EF1CF0EA22EE50EFCFEAFFE96E120072
:1036F000E66EDBC1E9FFDCC1EAFFDB2B000EDC2359
:10370000E552E750EF6EDF061200000EE66EE66A45
:10371000E66EE66A1200EA22EECFDEFFEDCFDDFFB5
:10372000120054510F0B33EF1CF054510F0B38EFB4
:103730001CF0112210C0DEFF11C0DDFF1200160EBA
:10374000616E0F019F0E5B6F7B0E606E1200DF508B
:10375000106E116A140E105C000E11581200F72240
:103760000900F5CFCFF10A00F5CFD0F11200FE0E1F
:10377000DBCFE6FFAFDEE552E5521200010EE66E4A
:10378000E66A000EE66EE66A1200D950020FE96E94
:10379000DACFEAFFEF501200F76ACF25F66ED0516C
:1037A000F722080012005251F66EF76AD890F636EA
:1037B000F7361200B7C1E9FFB8C1EAFF1200040DE5
:1037C000F3CF10F0F4CF11F0000E1026020EB1DF8F
:1037D000840E50EF1CF05FD8500EEE6E020EED6EB0
:1037E00012003CDF020EE1261200020EE66EE66ACF
:1037F000DECFE6FFDDCFE6FF050E20EF1BF017DF83
:103800008C0EEF6E26DF840EEF6E120030DFB90EE5
:10381000E926010E12002BDFC30EE926010E12006D
:103820000ADF72EF1BF0E66E0CEC1EF0106E050E58
:10383000E15E1050120012DFE6521200FE0BEA3673
:10384000E96EC30EE926010E1200FE0BEA36E96EA0
:10385000B90EE926010E1200C5EC0DF0106E060E31
:10386000E15E10501200EA6AE70FE96E010E1200E5
:10387000EA6AE20FE96E010E1200E6DEEF50800BFD
:103880001200E2DEE850EF16120094DFEE52080E4E
:10389000EF6EDAEF1BF0020EE926000EEA221200AC
:0838A000D3DEE850EF12120024
:0838A8001201000200000008FB
:1038B000EA221E0001000102000109027B0004014E
:1038C00000E0320904000001030000000921110199
:1038D0000001221D000705810304000809040100FE
:1038E0000103000000092111010001221D0007054C
:1038F0008203010001090402000203000000092103
:1039000011010001221D00070583030800080705B7
:103910000303080008090403000203000000092152
:1039200011010001221D000705840340000807055E
:1039300004034000080600FF0901A1011901294004
:10394000150026FF00750895408100190129409156
:1039500000C00600FF0901A1011901294015002638
:10396000FF00750895408100190129409100C006AB
:1039700000FF0901A10119012940150026FF00756A
:103980000895408100190129409100C00600FF09F7
:1039900001A10119012940150026FF007508954075
:1039A0008100190129409100C00403090426034243
:1039B000006900740020005400720061006400651A
:1039C0000020004F006E00650020004C00540044B1
:1039D000002E001E035500530042002000490052F3
:1039E000002000520045004D004F0043004F004EA4
:0939F00000BA38A939AD39D33908
:0639FA00020150511F0BF9
:103A0000010801E01200060E515D4EE15351230AF8
:103A10004BE0010A21E0030A47E15451030A15E093
:103A2000010A0EE0030A07E0010A3EE10101CC0EA3
:103A3000CF6F380E0ED00101E50ECF6F380E09D0D2
:103A40000101FE0ECF6F380E04D001011E0ECF6FA4
:103A5000390ED06F090E24D05451030A1BE0010A1D
:103A600012E0030A09E0010A1FE10101350ECF6FE0
:103A7000390ED06F340E14D00101520ECF6F390EB3
:103A8000D06F1F0E0DD001016F0ECF6F390ED06FAA
:103A90003F0E06D001018C0ECF6F390ED06F1D0E78
:103AA000D26FD36BC00ED16F02015051600BE84250
:103AB000E842E842E842E842010801E012005151C0
:103AC0000B0A26E0080A19E0090A11E0080A05E0D5
:103AD0000B0A23E0080A21E012000101F20ECF6F69
:103AE000010ED06F010ED26FD36BC10E0FD001014A
:103AF000800ED16F53C2F2F112000101F30ECF6FAD
:103B0000010ED06F010ED26FD36B810ED16F1200F8
:0C3B10000101800ED16F52C2F3F11200CF
:043B1C001E0EF66E15
:103B2000100EF76E000EF86E00010900F550FA6FE6
:103B30000900F550FB6F03E1FA6701D03DD00900A1
:103B4000F550F56F0900F550F66F0900F550F76F65
:103B500009000900F550E96E0900F550EA6E090008
:103B600009000900F550F86F0900F550F96F0900D8
:103B70000900F6CFFCF0F7CFFDF0F8CFFEF0F5C06E
:103B8000F6FFF6C0F7FFF7C0F8FF0001F85302E1B7
:103B9000F95307E00900F550EE6EF807F8E2F9076F
:103BA000F9D7FCC0F6FFFDC0F7FFFEC0F8FF00012B
:0A3BB000FA07000EFB5BBFD71200FE
:063BBA00D9CFE6FFDACFCF
:103BC000E6FFE1CFD9FFE2CFDAFFE652E652FC0E84
:103BD000DBCF10F0FD0EDBCF11F0060ED8901036C3
:103BE0001136E804FBE110C0DEFF11C0DDFF010E5D
:103BF000DB50BE6EDF50E840E8403F0B300B106EEC
:103C0000CF0EBD141010BD6EE552E552E552E5CF62
:083C1000DAFFE7CFD9FF120033
:083C1800FE0EE3CFE9FFFF0EF1
:103C2000E3CFEAFFE9CFF3FFEACFF4FFFB0EE35067
:103C300003E1FC0EE35009E0FB0EE30602E2FC0E9A
:103C4000E306FD0EE350EE6EF1D71200FE0EE3CF59
:103C5000E9FFFF0EE3CFEAFFF36AF46AEE5203E0F6
:083C6000F34AF42AFBD712001D
:083C6800D9CFE6FFDACFE6FF39
:103C7000E1CFD9FFE2CFDAFF0C0EBD12CA94FD0EE0
:103C8000DB50CB6ECA84E552E5CFDAFFE7CFD9FF30
:103C90001200B9B0949AB9A202D094987F90B9A4B6
:103CA00002D094967F94B9A602D094947F96120085
:103CB00018D8A66AA680A850E552E7CFD9FF12000F
:103CC00010D8FC0EDB50A86E040EA66E550EA76E23
:103CD000AA0EA76EA682A6B2FED7E552E7CFD9FFFD
:103CE0001200D9CFE6FFE1CFD9FFFD0EDB50A96E60
:023CF0001200C0
:0E3CF200D9CFE6FFDACFE6FFE1CFD9FFE2CF70
:103D0000DAFFE652E652FC0EDBCFDEFFDBCFDDFF53
:103D1000010EDB50D76EDF50D66EE552E552E5520C
:0A3D2000E5CFDAFFE7CFD9FF12006C
:063D2A00D9CFE6FFDACF5D
:103D3000E6FFE1CFD9FFE2CFDAFFFD0EDB507F0BCC
:103D4000D56ED76AD66AF294FD0EDBAE02D0F28A47
:103D500001D0F29AD58EE552E5CFDAFFE7CFD9FF51
:023D600012004F
:0E3D6200D9CFE6FFDACFE6FFE1CFD9FFE2CFFF
:103D7000DAFFFD0EDB50FB0BCA6ECC6A9E92FD0E85
:103D8000DBAE02D09D8201D09D92CA84E552E5CF80
:083D9000DAFFE7CFD9FF1200B2
:083D9800036A026A100EE76ED7
:103DA000D89006360736023603360B50025C0C50AC
:103DB000035805E30B50025E0C50035A062AE72E07
:043DC000F0D7120026
:0C3DC400000EF36E00EE00F0030E01D8BC
:103DD0001200EA6002D0EE6AFCD7F350E9601200EC
:043DE000EE6AFCD7B4
:0C3DE40011EE00F021EE00F0F86A0F9CD8
:103DF0008EEC1DF003EC08F07CEC08F0FBD7120011
:103E0000322E312E300000000000000000000000C3
:103E100000000000000000000000000000000000A2
:103E20000000000000000000000000000000000092
:103E30000000000000000000000000000000000082
:103E40000000000000000000000000000000000072
:103E50000000000000000000000000000000000062
:103E60000000000000000000000000000000000052
:103E70000000000000000000000000000000000042
:103E80000000000000000000000000009E00000094
:053E900000000000002D
:020000040030CA
:0100000000FF
:0100010032CC
:0100020001FC
:010003001EDE
:0100050000FA
:010006008178
:0100080003F4
:01000900C036
:01000A0003F2
:01000B00E014
:01000C0003F0
:01000D0040B2
:00000001FF
